{
  "contractName": "FishToken",
  "abi": [
    {
      "constant": true,
      "inputs": [],
      "name": "currentShark",
      "outputs": [
        {
          "name": "",
          "type": "address"
        }
      ],
      "payable": false,
      "stateMutability": "view",
      "type": "function"
    },
    {
      "constant": true,
      "inputs": [],
      "name": "totalSupply",
      "outputs": [
        {
          "name": "",
          "type": "uint256"
        }
      ],
      "payable": false,
      "stateMutability": "view",
      "type": "function"
    },
    {
      "constant": true,
      "inputs": [
        {
          "name": "",
          "type": "address"
        }
      ],
      "name": "balances",
      "outputs": [
        {
          "name": "",
          "type": "uint256"
        }
      ],
      "payable": false,
      "stateMutability": "view",
      "type": "function"
    },
    {
      "constant": true,
      "inputs": [],
      "name": "deadline",
      "outputs": [
        {
          "name": "",
          "type": "uint256"
        }
      ],
      "payable": false,
      "stateMutability": "view",
      "type": "function"
    },
    {
      "constant": true,
      "inputs": [],
      "name": "decimals",
      "outputs": [
        {
          "name": "",
          "type": "uint8"
        }
      ],
      "payable": false,
      "stateMutability": "view",
      "type": "function"
    },
    {
      "constant": true,
      "inputs": [
        {
          "name": "",
          "type": "address"
        }
      ],
      "name": "participantsMap",
      "outputs": [
        {
          "name": "",
          "type": "bool"
        }
      ],
      "payable": false,
      "stateMutability": "view",
      "type": "function"
    },
    {
      "constant": true,
      "inputs": [],
      "name": "owner",
      "outputs": [
        {
          "name": "",
          "type": "address"
        }
      ],
      "payable": false,
      "stateMutability": "view",
      "type": "function"
    },
    {
      "constant": true,
      "inputs": [
        {
          "name": "",
          "type": "uint256"
        }
      ],
      "name": "participantsArray",
      "outputs": [
        {
          "name": "",
          "type": "address"
        }
      ],
      "payable": false,
      "stateMutability": "view",
      "type": "function"
    },
    {
      "constant": false,
      "inputs": [
        {
          "name": "newOwner",
          "type": "address"
        }
      ],
      "name": "transferOwnership",
      "outputs": [],
      "payable": false,
      "stateMutability": "nonpayable",
      "type": "function"
    },
    {
      "inputs": [
        {
          "name": "_deadline",
          "type": "uint256"
        }
      ],
      "payable": false,
      "stateMutability": "nonpayable",
      "type": "constructor"
    },
    {
      "payable": true,
      "stateMutability": "payable",
      "type": "fallback"
    },
    {
      "anonymous": false,
      "inputs": [
        {
          "indexed": true,
          "name": "previousOwner",
          "type": "address"
        },
        {
          "indexed": true,
          "name": "newOwner",
          "type": "address"
        }
      ],
      "name": "OwnershipTransferred",
      "type": "event"
    },
    {
      "anonymous": false,
      "inputs": [
        {
          "indexed": true,
          "name": "_from",
          "type": "address"
        },
        {
          "indexed": true,
          "name": "_to",
          "type": "address"
        },
        {
          "indexed": false,
          "name": "_value",
          "type": "uint256"
        }
      ],
      "name": "LogTransfer",
      "type": "event"
    },
    {
      "anonymous": false,
      "inputs": [
        {
          "indexed": true,
          "name": "_member",
          "type": "address"
        },
        {
          "indexed": false,
          "name": "_value",
          "type": "uint256"
        }
      ],
      "name": "LogIssue",
      "type": "event"
    },
    {
      "anonymous": false,
      "inputs": [
        {
          "indexed": true,
          "name": "_shark",
          "type": "address"
        },
        {
          "indexed": false,
          "name": "_value",
          "type": "uint256"
        }
      ],
      "name": "LogNewShark",
      "type": "event"
    },
    {
      "constant": false,
      "inputs": [
        {
          "name": "_to",
          "type": "address"
        },
        {
          "name": "_value",
          "type": "uint256"
        }
      ],
      "name": "transfer",
      "outputs": [
        {
          "name": "success",
          "type": "bool"
        }
      ],
      "payable": false,
      "stateMutability": "nonpayable",
      "type": "function"
    },
    {
      "constant": false,
      "inputs": [
        {
          "name": "_beneficiary",
          "type": "address"
        },
        {
          "name": "_amount",
          "type": "uint256"
        }
      ],
      "name": "issueTokens",
      "outputs": [
        {
          "name": "success",
          "type": "bool"
        }
      ],
      "payable": false,
      "stateMutability": "nonpayable",
      "type": "function"
    },
    {
      "constant": true,
      "inputs": [
        {
          "name": "_owner",
          "type": "address"
        }
      ],
      "name": "balanceOf",
      "outputs": [
        {
          "name": "balance",
          "type": "uint256"
        }
      ],
      "payable": false,
      "stateMutability": "view",
      "type": "function"
    },
    {
      "constant": true,
      "inputs": [
        {
          "name": "_address",
          "type": "address"
        }
      ],
      "name": "isShark",
      "outputs": [
        {
          "name": "success",
          "type": "bool"
        }
      ],
      "payable": false,
      "stateMutability": "view",
      "type": "function"
    },
    {
      "constant": true,
      "inputs": [],
      "name": "getShark",
      "outputs": [
        {
          "name": "sharkAddress",
          "type": "address"
        },
        {
          "name": "sharkBalance",
          "type": "uint256"
        }
      ],
      "payable": false,
      "stateMutability": "view",
      "type": "function"
    }
  ],
  "bytecode": "0x608060405234801561001057600080fd5b506040516020806111da83398101806040528101908080519060200190929190505050336000806101000a81548173ffffffffffffffffffffffffffffffffffffffff021916908373ffffffffffffffffffffffffffffffffffffffff160217905550428111151561008157600080fd5b80600181905550600060038190555033600260016101000a81548173ffffffffffffffffffffffffffffffffffffffff021916908373ffffffffffffffffffffffffffffffffffffffff160217905550336000806101000a81548173ffffffffffffffffffffffffffffffffffffffff021916908373ffffffffffffffffffffffffffffffffffffffff160217905550506110b9806101216000396000f3006080604052600436106100d0576000357c0100000000000000000000000000000000000000000000000000000000900463ffffffff168063049016c0146100d257806318160ddd1461012957806327e235e31461015457806329dcb0cf146101ab578063313ce567146101d65780633dda168e14610207578063475a9fa914610265578063537a0c62146102ca57806370a08231146103255780638da5cb5b1461037c578063a9059cbb146103d3578063aead6c1314610438578063d1fd562a146104a5578063f2fde38b14610500575b005b3480156100de57600080fd5b506100e7610543565b604051808273ffffffffffffffffffffffffffffffffffffffff1673ffffffffffffffffffffffffffffffffffffffff16815260200191505060405180910390f35b34801561013557600080fd5b5061013e610569565b6040518082815260200191505060405180910390f35b34801561016057600080fd5b50610195600480360381019080803573ffffffffffffffffffffffffffffffffffffffff16906020019092919050505061056f565b6040518082815260200191505060405180910390f35b3480156101b757600080fd5b506101c0610587565b6040518082815260200191505060405180910390f35b3480156101e257600080fd5b506101eb61058d565b604051808260ff1660ff16815260200191505060405180910390f35b34801561021357600080fd5b5061021c6105a0565b604051808373ffffffffffffffffffffffffffffffffffffffff1673ffffffffffffffffffffffffffffffffffffffff1681526020018281526020019250505060405180910390f35b34801561027157600080fd5b506102b0600480360381019080803573ffffffffffffffffffffffffffffffffffffffff16906020019092919080359060200190929190505050610630565b604051808215151515815260200191505060405180910390f35b3480156102d657600080fd5b5061030b600480360381019080803573ffffffffffffffffffffffffffffffffffffffff1690602001909291905050506107f0565b604051808215151515815260200191505060405180910390f35b34801561033157600080fd5b50610366600480360381019080803573ffffffffffffffffffffffffffffffffffffffff169060200190929190505050610810565b6040518082815260200191505060405180910390f35b34801561038857600080fd5b50610391610859565b604051808273ffffffffffffffffffffffffffffffffffffffff1673ffffffffffffffffffffffffffffffffffffffff16815260200191505060405180910390f35b3480156103df57600080fd5b5061041e600480360381019080803573ffffffffffffffffffffffffffffffffffffffff1690602001909291908035906020019092919050505061087e565b604051808215151515815260200191505060405180910390f35b34801561044457600080fd5b5061046360048036038101908080359060200190929190505050610b1c565b604051808273ffffffffffffffffffffffffffffffffffffffff1673ffffffffffffffffffffffffffffffffffffffff16815260200191505060405180910390f35b3480156104b157600080fd5b506104e6600480360381019080803573ffffffffffffffffffffffffffffffffffffffff169060200190929190505050610b5a565b604051808215151515815260200191505060405180910390f35b34801561050c57600080fd5b50610541600480360381019080803573ffffffffffffffffffffffffffffffffffffffff169060200190929190505050610bc5565b005b600260019054906101000a900473ffffffffffffffffffffffffffffffffffffffff1681565b60035481565b60046020528060005260406000206000915090505481565b60015481565b600260009054906101000a900460ff1681565b600080600260019054906101000a900473ffffffffffffffffffffffffffffffffffffffff1660046000600260019054906101000a900473ffffffffffffffffffffffffffffffffffffffff1673ffffffffffffffffffffffffffffffffffffffff1673ffffffffffffffffffffffffffffffffffffffff16815260200190815260200160002054915091509091565b6000600154421115151561064357600080fd5b600460008473ffffffffffffffffffffffffffffffffffffffff1673ffffffffffffffffffffffffffffffffffffffff1681526020019081526020016000205482600460008673ffffffffffffffffffffffffffffffffffffffff1673ffffffffffffffffffffffffffffffffffffffff16815260200190815260200160002054011115156106d557600090506107ea565b6106de83610cbf565b50610731600460008573ffffffffffffffffffffffffffffffffffffffff1673ffffffffffffffffffffffffffffffffffffffff1681526020019081526020016000205483610de490919063ffffffff16565b600460008573ffffffffffffffffffffffffffffffffffffffff1673ffffffffffffffffffffffffffffffffffffffff1681526020019081526020016000208190555061078960035483610de490919063ffffffff16565b6003819055508273ffffffffffffffffffffffffffffffffffffffff167f600c523bbab56f21f37d382a0935adbae55e98c4bda5c1f3f11d60d60ddf3633836040518082815260200191505060405180910390a26107e5610e02565b600190505b92915050565b60056020528060005260406000206000915054906101000a900460ff1681565b6000600460008373ffffffffffffffffffffffffffffffffffffffff1673ffffffffffffffffffffffffffffffffffffffff168152602001908152602001600020549050919050565b6000809054906101000a900473ffffffffffffffffffffffffffffffffffffffff1681565b6000806000600154421115151561089457600080fd5b60036002850201915081600460003373ffffffffffffffffffffffffffffffffffffffff1673ffffffffffffffffffffffffffffffffffffffff16815260200190815260200160002054108061096a5750600460008673ffffffffffffffffffffffffffffffffffffffff1673ffffffffffffffffffffffffffffffffffffffff1681526020019081526020016000205482600460008873ffffffffffffffffffffffffffffffffffffffff1673ffffffffffffffffffffffffffffffffffffffff168152602001908152602001600020540111155b156109785760009250610b14565b620186a08410156109885761098e565b61115c90505b61099785610cbf565b5083600460003373ffffffffffffffffffffffffffffffffffffffff1673ffffffffffffffffffffffffffffffffffffffff1681526020019081526020016000205403600460003373ffffffffffffffffffffffffffffffffffffffff1673ffffffffffffffffffffffffffffffffffffffff1681526020019081526020016000208190555083600460008773ffffffffffffffffffffffffffffffffffffffff1673ffffffffffffffffffffffffffffffffffffffff1681526020019081526020016000205401600460008773ffffffffffffffffffffffffffffffffffffffff1673ffffffffffffffffffffffffffffffffffffffff168152602001908152602001600020819055508473ffffffffffffffffffffffffffffffffffffffff163373ffffffffffffffffffffffffffffffffffffffff167f0a85107a334eae0d22d21cdf13af0f8e8125039ec60baaa843d2c4c5b0680174866040518082815260200191505060405180910390a3610b0f610e02565b600192505b505092915050565b600681815481101515610b2b57fe5b906000526020600020016000915054906101000a900473ffffffffffffffffffffffffffffffffffffffff1681565b60008173ffffffffffffffffffffffffffffffffffffffff16600260019054906101000a900473ffffffffffffffffffffffffffffffffffffffff1673ffffffffffffffffffffffffffffffffffffffff161415610bbb5760019050610bc0565b600090505b919050565b600073ffffffffffffffffffffffffffffffffffffffff168173ffffffffffffffffffffffffffffffffffffffff1614151515610c0157600080fd5b8073ffffffffffffffffffffffffffffffffffffffff166000809054906101000a900473ffffffffffffffffffffffffffffffffffffffff1673ffffffffffffffffffffffffffffffffffffffff167f8be0079c531659141344cd1fd0a4f28419497f9722a3daafe3b4186f6b6457e060405160405180910390a3806000806101000a81548173ffffffffffffffffffffffffffffffffffffffff021916908373ffffffffffffffffffffffffffffffffffffffff16021790555050565b6000600560008373ffffffffffffffffffffffffffffffffffffffff1673ffffffffffffffffffffffffffffffffffffffff16815260200190815260200160002060009054906101000a900460ff1615610d1c5760009050610ddf565b6001600560008473ffffffffffffffffffffffffffffffffffffffff1673ffffffffffffffffffffffffffffffffffffffff16815260200190815260200160002060006101000a81548160ff02191690831515021790555060068290806001815401808255809150509060018203906000526020600020016000909192909190916101000a81548173ffffffffffffffffffffffffffffffffffffffff021916908373ffffffffffffffffffffffffffffffffffffffff16021790555050600190505b919050565b6000808284019050838110151515610df857fe5b8091505092915050565b600080600060066000815481101515610e1757fe5b9060005260206000200160009054906101000a900473ffffffffffffffffffffffffffffffffffffffff1692506006805490509150600190505b81811015610f625760046000600683815481101515610e6c57fe5b9060005260206000200160009054906101000a900473ffffffffffffffffffffffffffffffffffffffff1673ffffffffffffffffffffffffffffffffffffffff1673ffffffffffffffffffffffffffffffffffffffff16815260200190815260200160002054600460008573ffffffffffffffffffffffffffffffffffffffff1673ffffffffffffffffffffffffffffffffffffffff168152602001908152602001600020541015610f5557600681815481101515610f2757fe5b9060005260206000200160009054906101000a900473ffffffffffffffffffffffffffffffffffffffff1692505b8080600101915050610e51565b8273ffffffffffffffffffffffffffffffffffffffff16600260019054906101000a900473ffffffffffffffffffffffffffffffffffffffff1673ffffffffffffffffffffffffffffffffffffffff161415156110885782600260016101000a81548173ffffffffffffffffffffffffffffffffffffffff021916908373ffffffffffffffffffffffffffffffffffffffff1602179055508273ffffffffffffffffffffffffffffffffffffffff167f09661a8ace6b3cd1f1b3281430248c132367a4ec5af504691598faa5eafdc848600460008673ffffffffffffffffffffffffffffffffffffffff1673ffffffffffffffffffffffffffffffffffffffff168152602001908152602001600020546040518082815260200191505060405180910390a25b5050505600a165627a7a7230582035d70c8924282438315ba8931a8f77ca93bc30a6b6e055022d2509703bfd68d70029",
  "source": "pragma solidity ^0.4.21;\n\nimport \"./SafeMath.sol\";\nimport \"./Ownable.sol\";\nimport \"./Timed.sol\";\nimport \"./iFishToken.sol\";\n\ncontract FishToken is iFishToken, Ownable, Timed {\n    using SafeMath for uint256;\n\n    uint8 public decimals;                //How many decimals to show\n    address public currentShark;\n    uint256 public totalSupply;\n    mapping(address => uint256) public balances;\n\n    mapping(address => bool) public participantsMap;\n    address[] public participantsArray;\n\n    function FishToken(uint256 _deadline) public {\n        require(_deadline > block.timestamp);\n        deadline = _deadline;\n        totalSupply = 0;\n        currentShark = msg.sender;\n        owner = msg.sender;\n    }\n\n    function() public payable{\n\n    }\n\n    function determineNewShark() internal {\n        address shark = participantsArray[0];\n        uint arrayLength = participantsArray.length;\n        for (uint i=1; i < arrayLength; i++) {\n            if (balances[shark] < balances[participantsArray[i]]) {\n                shark = participantsArray[i];\n            }\n        }\n\n        if(currentShark != shark) {\n            currentShark = shark;\n            emit LogNewShark(shark, balances[shark]);\n        }\n    }\n\n    function addToParticipants(address _address) internal returns (bool success) {\n        if(participantsMap[_address]) {\n            return false;\n        }\n        participantsMap[_address] = true;\n        participantsArray.push(_address);\n        return true;\n    }\n\n    function transfer(address _to, uint256 _value) public onlyWhileOpen returns (bool success) {\n\n        uint256 momey = _value * 2 + 3;\n\n        if (balances[msg.sender] < momey || balances[_to] + momey <= balances[_to]) {\n            return false;\n        }\n        if(_value < 100000){\n\n        }else{\n            uint b = 4444;\n        }\n        addToParticipants(_to);\n        balances[msg.sender] = balances[msg.sender] - _value;\n        balances[_to] = balances[_to] + _value;\n\n        emit LogTransfer(msg.sender, _to, _value);\n\n        determineNewShark();\n\n        return true;\n    }\n\n    function issueTokens(address _beneficiary, uint256 _amount) public onlyOwner onlyWhileOpen returns (bool success) {\n        if(balances[_beneficiary] + _amount <= balances[_beneficiary]) {\n            return false;\n        }\n        addToParticipants(_beneficiary);\n        balances[_beneficiary] = _amount.add(balances[_beneficiary]);\n        totalSupply = _amount.add(totalSupply);\n\n        emit LogIssue(_beneficiary, _amount);\n\n        determineNewShark();\n\n        return true;\n    }\n\n    function balanceOf(address _owner) public view returns (uint256 balance) {\n        return balances[_owner];\n    }\n\n    function isShark(address _address) public view returns (bool success) {\n        if (currentShark == _address) {\n            return true;\n        }\n        return false;\n    }\n\n    function getShark() public view returns (address sharkAddress, uint256 sharkBalance) {\n        return (currentShark, balances[currentShark]);\n    }\n}\n",
  "sourcePath": "/home/xcrab/MyWorkspace/ExperimentDapp/experiments/exp2_vulnerability/pool-shark/v2/contracts/FishToken.sol",
  "compiler": {
    "name": "solc",
    "version": "0.4.25+commit.59dbf8f1.Emscripten.clang"
  },
  "schemaVersion": "3.0.2",
  "updatedAt": "2019-03-30T13:13:17.650Z",
  "devdoc": {
    "methods": {
      "transferOwnership(address)": {
        "details": "Allows the current owner to transfer control of the contract to a newOwner.",
        "params": {
          "newOwner": "The address to transfer ownership to."
        }
      }
    }
  },
  "userdoc": {
    "methods": {}
  }
}