{
  "contractName": "Timed",
  "abi": [
    {
      "constant": true,
      "inputs": [],
      "name": "deadline",
      "outputs": [
        {
          "name": "",
          "type": "uint256"
        }
      ],
      "payable": false,
      "stateMutability": "view",
      "type": "function"
    }
  ],
  "bytecode": "0x6080604052348015600f57600080fd5b50609e8061001e6000396000f300608060405260043610603f576000357c0100000000000000000000000000000000000000000000000000000000900463ffffffff16806329dcb0cf146044575b600080fd5b348015604f57600080fd5b506056606c565b6040518082815260200191505060405180910390f35b600054815600a165627a7a72305820a3f92ccb4e0748b9649d8a89fa3f9954ca65ebf026556b97c9b9e97a0e9704580029",
  "source": "pragma solidity ^0.4.21;\n\ncontract Timed {\n\n    uint256 public deadline;\n\n    modifier onlyWhileOpen {\n        require(block.timestamp <= deadline);\n        _;\n    }\n\n    modifier onlyWhileClosed {\n        require(block.timestamp > deadline);\n        _;\n    }\n}\n",
  "sourcePath": "/home/xcrab/MyWorkspace/ExperimentDapp/experiments/exp2_vulnerability/pool-shark/v2/contracts/Timed.sol",
  "compiler": {
    "name": "solc",
    "version": "0.4.25+commit.59dbf8f1.Emscripten.clang"
  },
  "schemaVersion": "3.0.2",
  "updatedAt": "2019-03-30T13:13:17.654Z",
  "devdoc": {
    "methods": {}
  },
  "userdoc": {
    "methods": {}
  }
}