{
  "contractName": "TimeMockedPool",
  "abi": [
    {
      "constant": true,
      "inputs": [],
      "name": "name",
      "outputs": [
        {
          "name": "",
          "type": "string"
        }
      ],
      "payable": false,
      "stateMutability": "view",
      "type": "function"
    },
    {
      "constant": true,
      "inputs": [],
      "name": "getWeiCollected",
      "outputs": [
        {
          "name": "weiCollected",
          "type": "uint256"
        }
      ],
      "payable": false,
      "stateMutability": "view",
      "type": "function"
    },
    {
      "constant": true,
      "inputs": [],
      "name": "deadline",
      "outputs": [
        {
          "name": "",
          "type": "uint256"
        }
      ],
      "payable": false,
      "stateMutability": "view",
      "type": "function"
    },
    {
      "constant": true,
      "inputs": [],
      "name": "rate",
      "outputs": [
        {
          "name": "",
          "type": "uint256"
        }
      ],
      "payable": false,
      "stateMutability": "view",
      "type": "function"
    },
    {
      "constant": false,
      "inputs": [],
      "name": "withdraw",
      "outputs": [
        {
          "name": "success",
          "type": "bool"
        }
      ],
      "payable": false,
      "stateMutability": "nonpayable",
      "type": "function"
    },
    {
      "constant": true,
      "inputs": [],
      "name": "token",
      "outputs": [
        {
          "name": "",
          "type": "address"
        }
      ],
      "payable": false,
      "stateMutability": "view",
      "type": "function"
    },
    {
      "inputs": [
        {
          "name": "_name",
          "type": "string"
        },
        {
          "name": "_rate",
          "type": "uint256"
        },
        {
          "name": "_deadline",
          "type": "uint256"
        }
      ],
      "payable": false,
      "stateMutability": "nonpayable",
      "type": "constructor"
    },
    {
      "payable": true,
      "stateMutability": "payable",
      "type": "fallback"
    },
    {
      "anonymous": false,
      "inputs": [
        {
          "indexed": true,
          "name": "_caller",
          "type": "address"
        },
        {
          "indexed": true,
          "name": "_pool",
          "type": "address"
        }
      ],
      "name": "Withdraw",
      "type": "event"
    },
    {
      "constant": false,
      "inputs": [
        {
          "name": "_seconds",
          "type": "uint256"
        }
      ],
      "name": "leapForwardInTime",
      "outputs": [
        {
          "name": "success",
          "type": "bool"
        }
      ],
      "payable": false,
      "stateMutability": "nonpayable",
      "type": "function"
    }
  ],
  "bytecode": "0x608060405234801561001057600080fd5b50604051611b34380380611b3483398101806040528101908080518201929190602001805190602001909291908051906020019092919050505082828260008211151561005c57600080fd5b428111151561006a57600080fd5b826001908051906020019061008092919061010a565b5081600381905550806000819055508061009861018a565b80828152602001915050604051809103906000f0801580156100be573d6000803e3d6000fd5b50600260006101000a81548173ffffffffffffffffffffffffffffffffffffffff021916908373ffffffffffffffffffffffffffffffffffffffff1602179055505050505050506101bf565b828054600181600116156101000203166002900490600052602060002090601f016020900481019282601f1061014b57805160ff1916838001178555610179565b82800160010185558215610179579182015b8281111561017857825182559160200191906001019061015d565b5b509050610186919061019a565b5090565b604051611255806108df83390190565b6101bc91905b808211156101b85760008160009055506001016101a0565b5090565b90565b610711806101ce6000396000f300608060405260043610610083576000357c0100000000000000000000000000000000000000000000000000000000900463ffffffff16806306fdde03146101c95780630881acd31461025957806329dcb0cf146102845780632c4e722e146102af5780633ccfd60b146102da578063deb7ba4014610309578063fc0c546a1461034e575b60008054421115151561009557600080fd5b6000341115156100a457600080fd5b6100b9346003546103a590919063ffffffff16565b9050600260009054906101000a900473ffffffffffffffffffffffffffffffffffffffff1673ffffffffffffffffffffffffffffffffffffffff1663475a9fa933836040518363ffffffff167c0100000000000000000000000000000000000000000000000000000000028152600401808373ffffffffffffffffffffffffffffffffffffffff1673ffffffffffffffffffffffffffffffffffffffff16815260200182815260200192505050602060405180830381600087803b15801561018057600080fd5b505af1158015610194573d6000803e3d6000fd5b505050506040513d60208110156101aa57600080fd5b810190808051906020019092919050505015156101c657600080fd5b50005b3480156101d557600080fd5b506101de6103e0565b6040518080602001828103825283818151815260200191508051906020019080838360005b8381101561021e578082015181840152602081019050610203565b50505050905090810190601f16801561024b5780820380516001836020036101000a031916815260200191505b509250505060405180910390f35b34801561026557600080fd5b5061026e61047e565b6040518082815260200191505060405180910390f35b34801561029057600080fd5b5061029961049d565b6040518082815260200191505060405180910390f35b3480156102bb57600080fd5b506102c46104a3565b6040518082815260200191505060405180910390f35b3480156102e657600080fd5b506102ef6104a9565b604051808215151515815260200191505060405180910390f35b34801561031557600080fd5b5061033460048036038101908080359060200190929190505050610680565b604051808215151515815260200191505060405180910390f35b34801561035a57600080fd5b506103636106a6565b604051808273ffffffffffffffffffffffffffffffffffffffff1673ffffffffffffffffffffffffffffffffffffffff16815260200191505060405180910390f35b60008060008414156103ba57600091506103d9565b82840290508284828115156103cb57fe5b041415156103d557fe5b8091505b5092915050565b60018054600181600116156101000203166002900480601f0160208091040260200160405190810160405280929190818152602001828054600181600116156101000203166002900480156104765780601f1061044b57610100808354040283529160200191610476565b820191906000526020600020905b81548152906001019060200180831161045957829003601f168201915b505050505081565b60003073ffffffffffffffffffffffffffffffffffffffff1631905090565b60005481565b60035481565b60008054421115156104ba57600080fd5b600260009054906101000a900473ffffffffffffffffffffffffffffffffffffffff1673ffffffffffffffffffffffffffffffffffffffff1663d1fd562a336040518263ffffffff167c0100000000000000000000000000000000000000000000000000000000028152600401808273ffffffffffffffffffffffffffffffffffffffff1673ffffffffffffffffffffffffffffffffffffffff168152602001915050602060405180830381600087803b15801561057757600080fd5b505af115801561058b573d6000803e3d6000fd5b505050506040513d60208110156105a157600080fd5b810190808051906020019092919050505015610678573373ffffffffffffffffffffffffffffffffffffffff166108fc3073ffffffffffffffffffffffffffffffffffffffff16319081150290604051600060405180830381858888f19350505050158015610614573d6000803e3d6000fd5b503073ffffffffffffffffffffffffffffffffffffffff163373ffffffffffffffffffffffffffffffffffffffff167f34d58c18c6c1df2c698ccac556acea92941ca7b99d2fccf9e3ac1852d0dec36f60405160405180910390a36001905061067d565b600090505b90565b6000610697826000546106cc90919063ffffffff16565b60008190555060019050919050565b600260009054906101000a900473ffffffffffffffffffffffffffffffffffffffff1681565b60008282111515156106da57fe5b8183039050929150505600a165627a7a723058202465085e0617813ad24bc7bee68c1eea32521377c7b97cbce5696d3023a996700029608060405234801561001057600080fd5b5060405160208061125583398101806040528101908080519060200190929190505050336000806101000a81548173ffffffffffffffffffffffffffffffffffffffff021916908373ffffffffffffffffffffffffffffffffffffffff160217905550428111151561008157600080fd5b80600181905550600060038190555033600260016101000a81548173ffffffffffffffffffffffffffffffffffffffff021916908373ffffffffffffffffffffffffffffffffffffffff160217905550336000806101000a81548173ffffffffffffffffffffffffffffffffffffffff021916908373ffffffffffffffffffffffffffffffffffffffff16021790555050611134806101216000396000f3006080604052600436106100db576000357c0100000000000000000000000000000000000000000000000000000000900463ffffffff168063049016c0146100dd57806318160ddd1461013457806327e235e31461015f57806329dcb0cf146101b6578063313ce567146101e15780633dda168e14610212578063475a9fa914610270578063537a0c62146102d557806370a08231146103305780638da5cb5b14610387578063a9059cbb146103de578063aead6c1314610443578063bc127cd5146104b0578063d1fd562a1461050b578063f2fde38b14610566575b005b3480156100e957600080fd5b506100f26105a9565b604051808273ffffffffffffffffffffffffffffffffffffffff1673ffffffffffffffffffffffffffffffffffffffff16815260200191505060405180910390f35b34801561014057600080fd5b506101496105cf565b6040518082815260200191505060405180910390f35b34801561016b57600080fd5b506101a0600480360381019080803573ffffffffffffffffffffffffffffffffffffffff1690602001909291905050506105d5565b6040518082815260200191505060405180910390f35b3480156101c257600080fd5b506101cb6105ed565b6040518082815260200191505060405180910390f35b3480156101ed57600080fd5b506101f66105f3565b604051808260ff1660ff16815260200191505060405180910390f35b34801561021e57600080fd5b50610227610606565b604051808373ffffffffffffffffffffffffffffffffffffffff1673ffffffffffffffffffffffffffffffffffffffff1681526020018281526020019250505060405180910390f35b34801561027c57600080fd5b506102bb600480360381019080803573ffffffffffffffffffffffffffffffffffffffff16906020019092919080359060200190929190505050610696565b604051808215151515815260200191505060405180910390f35b3480156102e157600080fd5b50610316600480360381019080803573ffffffffffffffffffffffffffffffffffffffff169060200190929190505050610856565b604051808215151515815260200191505060405180910390f35b34801561033c57600080fd5b50610371600480360381019080803573ffffffffffffffffffffffffffffffffffffffff169060200190929190505050610876565b6040518082815260200191505060405180910390f35b34801561039357600080fd5b5061039c6108bf565b604051808273ffffffffffffffffffffffffffffffffffffffff1673ffffffffffffffffffffffffffffffffffffffff16815260200191505060405180910390f35b3480156103ea57600080fd5b50610429600480360381019080803573ffffffffffffffffffffffffffffffffffffffff169060200190929190803590602001909291905050506108e4565b604051808215151515815260200191505060405180910390f35b34801561044f57600080fd5b5061046e60048036038101908080359060200190929190505050610b7e565b604051808273ffffffffffffffffffffffffffffffffffffffff1673ffffffffffffffffffffffffffffffffffffffff16815260200191505060405180910390f35b3480156104bc57600080fd5b506104f1600480360381019080803573ffffffffffffffffffffffffffffffffffffffff169060200190929190505050610bbc565b604051808215151515815260200191505060405180910390f35b34801561051757600080fd5b5061054c600480360381019080803573ffffffffffffffffffffffffffffffffffffffff169060200190929190505050610ce1565b604051808215151515815260200191505060405180910390f35b34801561057257600080fd5b506105a7600480360381019080803573ffffffffffffffffffffffffffffffffffffffff169060200190929190505050610d4c565b005b600260019054906101000a900473ffffffffffffffffffffffffffffffffffffffff1681565b60035481565b60046020528060005260406000206000915090505481565b60015481565b600260009054906101000a900460ff1681565b600080600260019054906101000a900473ffffffffffffffffffffffffffffffffffffffff1660046000600260019054906101000a900473ffffffffffffffffffffffffffffffffffffffff1673ffffffffffffffffffffffffffffffffffffffff1673ffffffffffffffffffffffffffffffffffffffff16815260200190815260200160002054915091509091565b600060015442111515156106a957600080fd5b600460008473ffffffffffffffffffffffffffffffffffffffff1673ffffffffffffffffffffffffffffffffffffffff1681526020019081526020016000205482600460008673ffffffffffffffffffffffffffffffffffffffff1673ffffffffffffffffffffffffffffffffffffffff168152602001908152602001600020540111151561073b5760009050610850565b61074483610bbc565b50610797600460008573ffffffffffffffffffffffffffffffffffffffff1673ffffffffffffffffffffffffffffffffffffffff1681526020019081526020016000205483610e4690919063ffffffff16565b600460008573ffffffffffffffffffffffffffffffffffffffff1673ffffffffffffffffffffffffffffffffffffffff168152602001908152602001600020819055506107ef60035483610e4690919063ffffffff16565b6003819055508273ffffffffffffffffffffffffffffffffffffffff167f600c523bbab56f21f37d382a0935adbae55e98c4bda5c1f3f11d60d60ddf3633836040518082815260200191505060405180910390a261084b610e64565b600190505b92915050565b60056020528060005260406000206000915054906101000a900460ff1681565b6000600460008373ffffffffffffffffffffffffffffffffffffffff1673ffffffffffffffffffffffffffffffffffffffff168152602001908152602001600020549050919050565b6000809054906101000a900473ffffffffffffffffffffffffffffffffffffffff1681565b600060015442111515156108f757600080fd5b81600460003373ffffffffffffffffffffffffffffffffffffffff1673ffffffffffffffffffffffffffffffffffffffff1681526020019081526020016000205410806109c45750600460008473ffffffffffffffffffffffffffffffffffffffff1673ffffffffffffffffffffffffffffffffffffffff1681526020019081526020016000205482600460008673ffffffffffffffffffffffffffffffffffffffff1673ffffffffffffffffffffffffffffffffffffffff168152602001908152602001600020540111155b156109d25760009050610b78565b6109db83610bbc565b50610a2e82600460003373ffffffffffffffffffffffffffffffffffffffff1673ffffffffffffffffffffffffffffffffffffffff168152602001908152602001600020546110ef90919063ffffffff16565b600460003373ffffffffffffffffffffffffffffffffffffffff1673ffffffffffffffffffffffffffffffffffffffff16815260200190815260200160002081905550610ac382600460008673ffffffffffffffffffffffffffffffffffffffff1673ffffffffffffffffffffffffffffffffffffffff16815260200190815260200160002054610e4690919063ffffffff16565b600460008573ffffffffffffffffffffffffffffffffffffffff1673ffffffffffffffffffffffffffffffffffffffff168152602001908152602001600020819055508273ffffffffffffffffffffffffffffffffffffffff163373ffffffffffffffffffffffffffffffffffffffff167f0a85107a334eae0d22d21cdf13af0f8e8125039ec60baaa843d2c4c5b0680174846040518082815260200191505060405180910390a3610b73610e64565b600190505b92915050565b600681815481101515610b8d57fe5b906000526020600020016000915054906101000a900473ffffffffffffffffffffffffffffffffffffffff1681565b6000600560008373ffffffffffffffffffffffffffffffffffffffff1673ffffffffffffffffffffffffffffffffffffffff16815260200190815260200160002060009054906101000a900460ff1615610c195760009050610cdc565b6001600560008473ffffffffffffffffffffffffffffffffffffffff1673ffffffffffffffffffffffffffffffffffffffff16815260200190815260200160002060006101000a81548160ff02191690831515021790555060068290806001815401808255809150509060018203906000526020600020016000909192909190916101000a81548173ffffffffffffffffffffffffffffffffffffffff021916908373ffffffffffffffffffffffffffffffffffffffff16021790555050600190505b919050565b60008173ffffffffffffffffffffffffffffffffffffffff16600260019054906101000a900473ffffffffffffffffffffffffffffffffffffffff1673ffffffffffffffffffffffffffffffffffffffff161415610d425760019050610d47565b600090505b919050565b600073ffffffffffffffffffffffffffffffffffffffff168173ffffffffffffffffffffffffffffffffffffffff1614151515610d8857600080fd5b8073ffffffffffffffffffffffffffffffffffffffff166000809054906101000a900473ffffffffffffffffffffffffffffffffffffffff1673ffffffffffffffffffffffffffffffffffffffff167f8be0079c531659141344cd1fd0a4f28419497f9722a3daafe3b4186f6b6457e060405160405180910390a3806000806101000a81548173ffffffffffffffffffffffffffffffffffffffff021916908373ffffffffffffffffffffffffffffffffffffffff16021790555050565b6000808284019050838110151515610e5a57fe5b8091505092915050565b600080600060066000815481101515610e7957fe5b9060005260206000200160009054906101000a900473ffffffffffffffffffffffffffffffffffffffff1692506006805490509150600190505b81811015610fc45760046000600683815481101515610ece57fe5b9060005260206000200160009054906101000a900473ffffffffffffffffffffffffffffffffffffffff1673ffffffffffffffffffffffffffffffffffffffff1673ffffffffffffffffffffffffffffffffffffffff16815260200190815260200160002054600460008573ffffffffffffffffffffffffffffffffffffffff1673ffffffffffffffffffffffffffffffffffffffff168152602001908152602001600020541015610fb757600681815481101515610f8957fe5b9060005260206000200160009054906101000a900473ffffffffffffffffffffffffffffffffffffffff1692505b8080600101915050610eb3565b8273ffffffffffffffffffffffffffffffffffffffff16600260019054906101000a900473ffffffffffffffffffffffffffffffffffffffff1673ffffffffffffffffffffffffffffffffffffffff161415156110ea5782600260016101000a81548173ffffffffffffffffffffffffffffffffffffffff021916908373ffffffffffffffffffffffffffffffffffffffff1602179055508273ffffffffffffffffffffffffffffffffffffffff167f09661a8ace6b3cd1f1b3281430248c132367a4ec5af504691598faa5eafdc848600460008673ffffffffffffffffffffffffffffffffffffffff1673ffffffffffffffffffffffffffffffffffffffff168152602001908152602001600020546040518082815260200191505060405180910390a25b505050565b60008282111515156110fd57fe5b8183039050929150505600a165627a7a72305820516b034d721057193bf8a51d5b52a8ca5b676d7e22ac0033c05b6b17fd068ee80029",
  "source": "pragma solidity ^0.4.21;\n\nimport \"./SafeMath.sol\";\nimport \"./Pool.sol\";\n\ncontract TimeMockedPool is Pool {\n    using SafeMath for uint256;\n\n    function leapForwardInTime(uint256 _seconds) public returns (bool success) {\n        deadline = deadline.sub(_seconds);\n        return true;\n    }\n\n    function TimeMockedPool(string _name, uint256 _rate, uint256 _deadline) Pool(_name, _rate, _deadline) public {}\n}\n",
  "sourcePath": "/home/xcrab/MyWorkspace/ExperimentDapp/experiments/exp2_vulnerability/pool-shark/v3/contracts/TimeMockedPool.sol",
  "compiler": {
    "name": "solc",
    "version": "0.4.25+commit.59dbf8f1.Emscripten.clang"
  },
  "schemaVersion": "3.0.2",
  "updatedAt": "2019-03-30T13:13:35.111Z",
  "devdoc": {
    "methods": {}
  },
  "userdoc": {
    "methods": {}
  }
}